{
  "contractName": "Consumer",
  "abi": [
    {
      "inputs": [
        {
          "internalType": "address",
          "name": "_oracle",
          "type": "address"
        }
      ],
      "stateMutability": "nonpayable",
      "type": "constructor"
    },
    {
      "inputs": [],
      "name": "oracle",
      "outputs": [
        {
          "internalType": "contract IOracle",
          "name": "",
          "type": "address"
        }
      ],
      "stateMutability": "view",
      "type": "function",
      "constant": true
    },
    {
      "inputs": [],
      "name": "price",
      "outputs": [
        {
          "internalType": "uint256",
          "name": "",
          "type": "uint256"
        }
      ],
      "stateMutability": "view",
      "type": "function",
      "constant": true
    },
    {
      "inputs": [],
      "name": "foo",
      "outputs": [],
      "stateMutability": "nonpayable",
      "type": "function"
    }
  ],
  "bytecode": "0x608060405234801561001057600080fd5b506040516103ad3803806103ad8339818101604052602081101561003357600080fd5b8101908080519060200190929190505050806000806101000a81548173ffffffffffffffffffffffffffffffffffffffff021916908373ffffffffffffffffffffffffffffffffffffffff16021790555050610319806100946000396000f3fe608060405234801561001057600080fd5b50600436106100415760003560e01c80637dc0d1d014610046578063a035b1fe1461007a578063c298557814610098575b600080fd5b61004e6100a2565b604051808273ffffffffffffffffffffffffffffffffffffffff16815260200191505060405180910390f35b6100826100c6565b6040518082815260200191505060405180910390f35b6100a06100cc565b005b60008054906101000a900473ffffffffffffffffffffffffffffffffffffffff1681565b60015481565b600060405160200180807f4254432f55534400000000000000000000000000000000000000000000000000815250600701905060405160208183030381529060405280519060200120905060008060008060009054906101000a900473ffffffffffffffffffffffffffffffffffffffff1673ffffffffffffffffffffffffffffffffffffffff166354f6127f856040518263ffffffff1660e01b81526004018082815260200191505060606040518083038186803b15801561018e57600080fd5b505afa1580156101a2573d6000803e3d6000fd5b505050506040513d60608110156101b857600080fd5b81019080805190602001909291908051906020019092919080519060200190929190505050925092509250600115158315151461025d576040517f08c379a00000000000000000000000000000000000000000000000000000000081526004018080602001828103825260128152602001807f636f756c64206e6f74206765742064617461000000000000000000000000000081525060200191505060405180910390fd5b607842038210156102d6576040517f08c379a000000000000000000000000000000000000000000000000000000000815260040180806020018281038252600d8152602001807f707269636520746f6f206f6c640000000000000000000000000000000000000081525060200191505060405180910390fd5b806001819055505050505056fea26469706673582212208bdfe2c2f0d336c123409aa910f27a59d79e29b1570aabe0803a9694f16e4f6764736f6c63430007040033",
  "immutableReferences": {},
  "source": "pragma solidity >=0.7.4;\r\n\r\nimport './IOracle.sol';\r\n\r\ncontract Consumer {\r\n    IOracle public oracle;\r\n    uint public price;\r\n    constructor(address _oracle){\r\n        oracle = IOracle(_oracle);\r\n    }\r\n\r\n    function foo() external{\r\n        bytes32 key = keccak256(abi.encodePacked('BTC/USD'));\r\n\r\n        (bool result, uint timestamp, uint data) = oracle.getData(key);\r\n        require(result == true, 'could not get data');\r\n        require(timestamp >= block.timestamp - 2 minutes, 'price too old');\r\n        price = data;\r\n        //do something with the price\r\n    }\r\n}",
  "sourcePath": "D:/Learnings/Ethereum/EatTheBlock/defi-building-blocks/contracts/Oracle/Consumer.sol",
  "compiler": {
    "name": "solc",
    "version": "0.7.4+commit.3f05b770.Emscripten.clang"
  },
  "schemaVersion": "3.3.3",
  "updatedAt": "2021-04-04T11:44:38.233Z",
  "networkType": "ethereum",
  "devdoc": {
    "kind": "dev",
    "methods": {},
    "version": 1
  },
  "userdoc": {
    "kind": "user",
    "methods": {},
    "version": 1
  }
}